{
  "contractName": "CourseFeedbackSystem",
  "abi": [
    {
      "constant": true,
      "inputs": [
        {
          "name": "",
          "type": "address"
        }
      ],
      "name": "voted",
      "outputs": [
        {
          "name": "",
          "type": "bool"
        }
      ],
      "payable": false,
      "stateMutability": "view",
      "type": "function",
      "signature": "0xaec2ccae"
    },
    {
      "constant": true,
      "inputs": [
        {
          "name": "",
          "type": "address"
        }
      ],
      "name": "feedbackRecord",
      "outputs": [
        {
          "name": "q1",
          "type": "uint256"
        },
        {
          "name": "q2",
          "type": "uint256"
        }
      ],
      "payable": false,
      "stateMutability": "view",
      "type": "function",
      "signature": "0xff61b5e3"
    },
    {
      "inputs": [],
      "payable": false,
      "stateMutability": "nonpayable",
      "type": "constructor",
      "signature": "constructor"
    },
    {
      "constant": false,
      "inputs": [
        {
          "name": "numberOfStudents",
          "type": "uint256"
        }
      ],
      "name": "setNumberOfStudents",
      "outputs": [],
      "payable": false,
      "stateMutability": "nonpayable",
      "type": "function",
      "signature": "0x29b28e1f"
    },
    {
      "constant": true,
      "inputs": [
        {
          "name": "_addr",
          "type": "address"
        }
      ],
      "name": "checkAdmin",
      "outputs": [
        {
          "name": "",
          "type": "bool"
        }
      ],
      "payable": false,
      "stateMutability": "view",
      "type": "function",
      "signature": "0x9026dee8"
    },
    {
      "constant": false,
      "inputs": [
        {
          "name": "_studentid",
          "type": "uint256"
        },
        {
          "name": "_studentname",
          "type": "string"
        },
        {
          "name": "pk",
          "type": "address"
        }
      ],
      "name": "addStudent",
      "outputs": [],
      "payable": false,
      "stateMutability": "nonpayable",
      "type": "function",
      "signature": "0xe7d0f6ee"
    },
    {
      "constant": false,
      "inputs": [
        {
          "name": "a",
          "type": "uint256"
        },
        {
          "name": "b",
          "type": "uint256"
        }
      ],
      "name": "giveFeedback",
      "outputs": [
        {
          "name": "",
          "type": "uint256"
        }
      ],
      "payable": false,
      "stateMutability": "nonpayable",
      "type": "function",
      "signature": "0x705f1e85"
    },
    {
      "constant": true,
      "inputs": [],
      "name": "checkFeedbackQ1",
      "outputs": [
        {
          "name": "",
          "type": "uint256"
        }
      ],
      "payable": false,
      "stateMutability": "view",
      "type": "function",
      "signature": "0x8855ac41"
    },
    {
      "constant": true,
      "inputs": [],
      "name": "checkFeedbackQ2",
      "outputs": [
        {
          "name": "",
          "type": "uint256"
        }
      ],
      "payable": false,
      "stateMutability": "view",
      "type": "function",
      "signature": "0xa7ac28d4"
    },
    {
      "constant": true,
      "inputs": [],
      "name": "getNoOfStudVoted",
      "outputs": [
        {
          "name": "",
          "type": "uint256"
        }
      ],
      "payable": false,
      "stateMutability": "view",
      "type": "function",
      "signature": "0x24297d43"
    },
    {
      "constant": true,
      "inputs": [],
      "name": "getTotalStud",
      "outputs": [
        {
          "name": "",
          "type": "uint256"
        }
      ],
      "payable": false,
      "stateMutability": "view",
      "type": "function",
      "signature": "0x4bf918ea"
    },
    {
      "constant": true,
      "inputs": [],
      "name": "returnTotalFeedbackQ1",
      "outputs": [
        {
          "name": "",
          "type": "uint256"
        }
      ],
      "payable": false,
      "stateMutability": "view",
      "type": "function",
      "signature": "0xb7c01f56"
    },
    {
      "constant": true,
      "inputs": [],
      "name": "returnTotalFeedbackQ2",
      "outputs": [
        {
          "name": "",
          "type": "uint256"
        }
      ],
      "payable": false,
      "stateMutability": "view",
      "type": "function",
      "signature": "0x4bafc4f7"
    }
  ],
  "bytecode": "0x608060405260006001556000600355600060045534801561001f57600080fd5b5033600260006101000a81548173ffffffffffffffffffffffffffffffffffffffff021916908373ffffffffffffffffffffffffffffffffffffffff16021790555061007a600061007f640100000000026401000000009004565b61014e565b600260009054906101000a900473ffffffffffffffffffffffffffffffffffffffff1673ffffffffffffffffffffffffffffffffffffffff163373ffffffffffffffffffffffffffffffffffffffff16141515610144576040517f08c379a00000000000000000000000000000000000000000000000000000000081526004018080602001828103825260148152602001807f596f7520617265206e6f7420616e2061646d696e00000000000000000000000081525060200191505060405180910390fd5b8060008190555050565b610b6c8061015d6000396000f3fe6080604052600436106100ba576000357c0100000000000000000000000000000000000000000000000000000000900463ffffffff16806324297d43146100bf57806329b28e1f146100ea5780634bafc4f7146101255780634bf918ea14610150578063705f1e851461017b5780638855ac41146101d45780639026dee8146101ff578063a7ac28d414610268578063aec2ccae14610293578063b7c01f56146102fc578063e7d0f6ee14610327578063ff61b5e314610419575b600080fd5b3480156100cb57600080fd5b506100d4610485565b6040518082815260200191505060405180910390f35b3480156100f657600080fd5b506101236004803603602081101561010d57600080fd5b810190808035906020019092919050505061048f565b005b34801561013157600080fd5b5061013a61055e565b6040518082815260200191505060405180910390f35b34801561015c57600080fd5b50610165610568565b6040518082815260200191505060405180910390f35b34801561018757600080fd5b506101be6004803603604081101561019e57600080fd5b810190808035906020019092919080359060200190929190505050610571565b6040518082815260200191505060405180910390f35b3480156101e057600080fd5b506101e9610776565b6040518082815260200191505060405180910390f35b34801561020b57600080fd5b5061024e6004803603602081101561022257600080fd5b81019080803573ffffffffffffffffffffffffffffffffffffffff16906020019092919050505061081f565b604051808215151515815260200191505060405180910390f35b34801561027457600080fd5b5061027d61088a565b6040518082815260200191505060405180910390f35b34801561029f57600080fd5b506102e2600480360360208110156102b657600080fd5b81019080803573ffffffffffffffffffffffffffffffffffffffff169060200190929190505050610933565b604051808215151515815260200191505060405180910390f35b34801561030857600080fd5b50610311610953565b6040518082815260200191505060405180910390f35b34801561033357600080fd5b506104176004803603606081101561034a57600080fd5b81019080803590602001909291908035906020019064010000000081111561037157600080fd5b82018360208201111561038357600080fd5b803590602001918460018302840111640100000000831117156103a557600080fd5b91908080601f016020809104026020016040519081016040528093929190818152602001838380828437600081840152601f19601f820116905080830192505050505050509192919290803573ffffffffffffffffffffffffffffffffffffffff16906020019092919050505061095d565b005b34801561042557600080fd5b506104686004803603602081101561043c57600080fd5b81019080803573ffffffffffffffffffffffffffffffffffffffff169060200190929190505050610a77565b604051808381526020018281526020019250505060405180910390f35b6000600154905090565b600260009054906101000a900473ffffffffffffffffffffffffffffffffffffffff1673ffffffffffffffffffffffffffffffffffffffff163373ffffffffffffffffffffffffffffffffffffffff16141515610554576040517f08c379a00000000000000000000000000000000000000000000000000000000081526004018080602001828103825260148152602001807f596f7520617265206e6f7420616e2061646d696e00000000000000000000000081525060200191505060405180910390fd5b8060008190555050565b6000600454905090565b60008054905090565b600060011515600560003373ffffffffffffffffffffffffffffffffffffffff1673ffffffffffffffffffffffffffffffffffffffff16815260200190815260200160002060020160009054906101000a900460ff1615151415156105d557600080fd5b60001515600660003373ffffffffffffffffffffffffffffffffffffffff1673ffffffffffffffffffffffffffffffffffffffff16815260200190815260200160002060009054906101000a900460ff16151514151561063457600080fd5b604080519081016040528084815260200183815250600760003373ffffffffffffffffffffffffffffffffffffffff1673ffffffffffffffffffffffffffffffffffffffff16815260200190815260200160002060008201518160000155602082015181600101559050506001600660003373ffffffffffffffffffffffffffffffffffffffff1673ffffffffffffffffffffffffffffffffffffffff16815260200190815260200160002060006101000a81548160ff021916908315150217905550826003600082825401925050819055508160046000828254019250508190555033604051602001808273ffffffffffffffffffffffffffffffffffffffff1673ffffffffffffffffffffffffffffffffffffffff1681526020019150506040516020818303038152906040528051906020012060019004905092915050565b600060011515600660003373ffffffffffffffffffffffffffffffffffffffff1673ffffffffffffffffffffffffffffffffffffffff16815260200190815260200160002060009054906101000a900460ff1615151415156107d757600080fd5b600760003373ffffffffffffffffffffffffffffffffffffffff1673ffffffffffffffffffffffffffffffffffffffff16815260200190815260200160002060000154905090565b6000600260009054906101000a900473ffffffffffffffffffffffffffffffffffffffff1673ffffffffffffffffffffffffffffffffffffffff168273ffffffffffffffffffffffffffffffffffffffff1614156108805760019050610885565b600090505b919050565b600060011515600660003373ffffffffffffffffffffffffffffffffffffffff1673ffffffffffffffffffffffffffffffffffffffff16815260200190815260200160002060009054906101000a900460ff1615151415156108eb57600080fd5b600760003373ffffffffffffffffffffffffffffffffffffffff1673ffffffffffffffffffffffffffffffffffffffff16815260200190815260200160002060010154905090565b60066020528060005260406000206000915054906101000a900460ff1681565b6000600354905090565b600260009054906101000a900473ffffffffffffffffffffffffffffffffffffffff1673ffffffffffffffffffffffffffffffffffffffff163373ffffffffffffffffffffffffffffffffffffffff161415156109b957600080fd5b60606040519081016040528084815260200183815260200160011515815250600560008373ffffffffffffffffffffffffffffffffffffffff1673ffffffffffffffffffffffffffffffffffffffff168152602001908152602001600020600082015181600001556020820151816001019080519060200190610a3d929190610a9b565b5060408201518160020160006101000a81548160ff0219169083151502179055509050506000808154809291906001019190505550505050565b60076020528060005260406000206000915090508060000154908060010154905082565b828054600181600116156101000203166002900490600052602060002090601f016020900481019282601f10610adc57805160ff1916838001178555610b0a565b82800160010185558215610b0a579182015b82811115610b09578251825591602001919060010190610aee565b5b509050610b179190610b1b565b5090565b610b3d91905b80821115610b39576000816000905550600101610b21565b5090565b9056fea165627a7a7230582048d7deeb7b0bee5e04c4bea5f898eb963d31051e4aa5d140abd48cde7fb2fc920029",
  "source": "pragma solidity >=0.4.21 <0.6.0;\n\n// This contract will be the backend smart contract for the course-feedback system, to interact with our blockchain\ncontract CourseFeedbackSystem{\n\n\n  // Store students Count\n  uint private studentsCount;\n  //Store number of students who have voted till now\n  uint private numberOfVotedStudents=0;\n  // Store admin credentials\n  address private admin;\n\n  uint private totalQ1=0;\n  uint private totalQ2=0;\n\n  modifier onlyAdmin() {\n    require (msg.sender==admin);\n    _;\n  }\n\n  //structure to store candidate's details\n  struct Student{\n    uint studentID;\n    string studentname;\n    bool validStud;\n    //feedback\n  }\n\n  //Store the Feedback received from the form\n  struct Feedback {\n    uint q1;\n    uint q2;\n    //Question variables go here\n  }\n\n\n  //Mappings\n  // mapping of all the students :studentsList\n  mapping (address=>Student) studentsList;\n  //voted\n  mapping (address=>bool) public voted;\n  //mapping to store feedback\n  mapping ( address => Feedback) public feedbackRecord;\n\n\n  //constructor\n  constructor() public {\n    //initialise admin credentials\n    admin=msg.sender;\n    setNumberOfStudents(0);\n  }\n\n\n  function setNumberOfStudents (uint numberOfStudents) public{\n  \tif(msg.sender!=admin)\n\t{\n\t\trevert(\"You are not an admin\");\n\t\t\n\t}\n    //sets the number of students allowed to give reviews\n    studentsCount=numberOfStudents;\n  }\n\n  function checkAdmin(address _addr) public view returns (bool){\n  \tif(_addr==admin)\n  \t{\n  \t\treturn true;\n  \t}\n  \telse\n  \t{\n  \t\treturn false;\n  \t}\n  }\n\n\n  //add students\n  function addStudent (uint _studentid,string memory _studentname, address pk) onlyAdmin public{\n    //making a new student struct\n    studentsList[pk]=Student(_studentid,_studentname,true);\n    //increase numberOfVotedStudents\n    studentsCount++;\n  }\n\n\n\n  //give feedback\n  function giveFeedback (uint a, uint b) public returns(uint) {\n      // requires that they are in studentsList\n      require(studentsList[msg.sender].validStud==true);\n      // requires that they haven't given feedback before\n      require(voted[msg.sender]==false);\n      //add to feedbackRecord\n      feedbackRecord[msg.sender] = Feedback(a,b);\n      // update voted\n      voted[msg.sender]=true;\n      totalQ1+=a;\n      totalQ2+=b;\n      return uint(keccak256(abi.encode(msg.sender)));\n  }\n\n\n  // check feedback\n  function checkFeedbackQ1() public view returns (uint){\n      //check if the student voted\n      require(voted[msg.sender]== true);\n      //check feedbackRecord\n      return (feedbackRecord[msg.sender].q1);\n\n  }\n\n  function checkFeedbackQ2() public view returns (uint){\n      //check if the student voted\n      require(voted[msg.sender]== true);\n      //check feedbackRecord\n      return (feedbackRecord[msg.sender].q2);\n\n  }\n\n  function getNoOfStudVoted() public view returns (uint)\n  {\n    return numberOfVotedStudents;\n  }\n\n  function getTotalStud() public view returns (uint)\n  {\n    return studentsCount;\n  }\n  \n  function returnTotalFeedbackQ1() public view returns(uint) {\n  \treturn totalQ1;\n  }\n\n  function returnTotalFeedbackQ2() public view returns (uint) {\n  \treturn totalQ2;\n  }\n\n}\n",
  "sourcePath": "/home/atharv/GitHub_Projects/atharv-ui/contracts/CourseFeedbackSystem.sol",
  "compiler": {
    "name": "solc",
    "version": "0.5.0+commit.1d4f565a.Emscripten.clang"
  },
  "schemaVersion": "3.0.2",
  "updatedAt": "2019-04-09T09:55:21.317Z",
  "devdoc": {
    "methods": {}
  },
  "userdoc": {
    "methods": {}
  }
}